:020000040800F2
:100000003809002045010008DD1300089D12000892
:10001000A112000841050008292100080000000085
:10002000000000000000000000000000131800089D
:10003000BD0C000800000000C5150008ED190008FF
:100040005F0100085F0100085F0100085F01000810
:100050005F0100085F0100085F0100085F01000800
:100060005F0100085F0100085F0100085F010008F0
:100070005F0100085F0100085F0100085F010008E0
:100080005F0100085F0100085F0100085F010008D0
:10009000712000085F0100085F0100085F0100088F
:1000A0005F0100085F0100085F0100085F010008B0
:1000B000511A00085F010008011B00085F010008D9
:1000C0005F0100085F0100085F0100085F01000890
:1000D0005F0100089D1D0008651E00085F01000803
:1000E0005F0100085F0100085F0100085F01000870
:1000F0005F0100085F0100085F0100085F01000860
:100100005F0100085F0100085F0100085F0100084F
:100110005F0100085F0100085F0100085F0100083F
:100120005F0100085F0100085F0100085F0100082F
:10013000DFF80CD000F0BAF900480047AD24000801
:10014000380900200648804706480047FEE7FEE7DA
:10015000FEE7FEE7FEE7FEE7FEE7FEE7FEE7FEE777
:10016000F119000831010008F0B480EA0102D40F4F
:100170004200B2EB410F02D20246084611464A0045
:1001800042D0C30DDDB2C1F3C752AD1A202D35DA0E
:10019000C1F3160141F4000204B15242C5F1200638
:1001A00002FA06F12A411044B3EBD05F23D0C4B168
:1001B000012DA0EBC35009DCF0BC4FF0004202EA75
:1001C000C352DBB200F5000000F041B9400000F17D
:1001D000807000EBC350A0F1807040EAD1704900FC
:1001E00009E0490841EAC071A0EBC35000F50000E6
:1001F000400800EBC350F0BC00F020B9614201227E
:1002000002EB4101001BF6E7F0BC704781F00041B2
:10021000AAE780F00040A7E780EA010210B502F0EB
:100220000043400022D04A001FD0010E01EB1261B2
:10023000C0F35600C2F3560240F4000042F400023C
:10024000A0FB022000047F39140400D0401C50EAB7
:10025000124001D44000491EC2B20C0604EBD0107B
:10026000401C4008802A02D003E0002010BD20F08E
:100270000100002900DA0020184310BD30B480EAE4
:10028000010202F0004530F0004221F0004013D09E
:1002900090B1C30DD40DC2F31601C0F31600E41AD9
:1002A00041F4000140F400027D34914201D3641C0A
:1002B00000E04900002C02DA30BC002070474FF407
:1002C00000000023914201D3891A034340084FEAFA
:1002D0004101F7D151B1914202D14FF0004105E007
:1002E00002D24FF0010101E06FF0010103EBC450B5
:1002F000284430BC00F0A2B8C10F80EAE070084486
:10030000CA079623002100F0A2B800F0004220F0B6
:100310000040C10DC0F3160040F400007F2901DA4F
:1003200000207047962903DCC1F19601C84001E026
:1003300096398840002AF4D040427047C1F30A52EF
:1003400010B5C1F3130140F2FF3341F480119A421A
:1003500001DA002010BD40F233439A42A2F2334248
:1003600003DC524200F05AF810BD904010BD00F07E
:10037000004230F000400AD0C10D01F56071C0F3B9
:10038000160042EA0151C20840071143704700209D
:100390000146704730B5041E71F1000404DB4FF0D4
:1003A0000044404264EB0101141E73F1000405DBBC
:1003B0001C464FF00043524263EB04038B4208BFDC
:1003C000824230BD30B5041E71F1000404DB4FF0F1
:1003D0000044404264EB0101141E73F1000405DB8C
:1003E0001C464FF00043524263EB0403994208BF9E
:1003F000904230BD002801DBC0F10040002901DB44
:10040000C1F1004181427047002801DBC0F100408A
:10041000002901DBC1F1004188427047202A04DB3A
:10042000203A21FA02F00021704721FA02F3D0406D
:10043000C2F1200291400843194670470029A8BF25
:100440007047401C490008BF20F00100704710B4FD
:10045000B0FA80FC00FA0CF050EA010404BF10BCB2
:10046000704749B1CCF1200421FA04F411FA0CF1DF
:1004700018BF012121430843A3EB0C01CB1D4FEA18
:1004800000614FEA102042BF002010BC704700EB13
:10049000C35010440029A4BF10BC7047401C490041
:1004A00008BF20F0010010BC70470000064C074D4B
:1004B00006E0E06840F0010394E807009847103434
:1004C000AC42F6D3FFF738FED8280008F828000819
:1004D00010B5002000F0ECFB002000F0E3FB00F082
:1004E0009DFB0748007808B9012000E0002005497D
:1004F000087000200449087001200449087010BDEC
:100500008400002061000020600000205F000020C7
:1005100010B50020074908700748007848B100F07E
:100520007DFB0648007808B9012000E00020024960
:10053000087010BD5F0000206100002084000020D2
:1005400000BFFEE721B1012907D002290FD109E040
:10055000826842F0800282600AE0826842F40042CF
:10056000826005E0826842F40002826000E000BF21
:1005700000BF704700220C4B994202D100238361D7
:1005800011E0C1F3130201F000730BB1C2600AE085
:1005900001F080630BB1026105E001F000630BB173
:1005A000826000E0426070477000F03010B50021BA
:1005B000837A012202FA03F13D4A126842F00102F5
:1005C0003B4B1A603A4A1C3212688A43384B1C3340
:1005D0001A60027BCAB9364A0C3212688A43344B1D
:1005E0000C331A604288C38842EA0343304A4032DF
:1005F000847A42F834300288838842EA03432C4AE2
:100600004032847A02EBC4025360027B012A19D182
:10061000274A0C3212680A43254B0C331A60428871
:10062000038842EA0343224A4032847A42F8343053
:10063000C288838842EA03431D4A4032847A02EB2F
:10064000C4025360C27A3AB9194A121D12688A4329
:10065000174B1B1D1A6006E0154A121D12680A434B
:10066000134B1B1D1A60028932B9114A14321268E9
:100670008A430F4B14331A600289012A06D10C4AAF
:10068000143212680A430A4B14331A60427B012A5F
:1006900006D1074A1C3212680A43054B1C331A6004
:1006A000034A126822F00102014B1A6010BD0000DB
:1006B0000066004010B50246002001F4700343B10B
:1006C0009369C1F3130423400BB101202DE00020F6
:1006D0002BE001F0807343B15368C1F3130423404E
:1006E0000BB1012021E000201FE001F0006343B1C5
:1006F0009368C1F3130423400BB1012015E00020DF
:1007000013E001F0007343B1D368C1F31304234035
:100710000BB1012009E0002007E01369C1F31304C5
:1007200023400BB1012000E0002010BD1AB1436945
:100730000B43436102E043698B434361704730B52B
:10074000024600200023146824F002041460146898
:1007500044F00104146000E05B1C546804F00104E0
:100760001CB94FF6FF74A342F6D1546804F001049B
:100770000CB900206CE08C79012C04D1146844F091
:100780008004146003E0146824F080041460CC79C1
:10079000012C04D1146844F04004146003E0146890
:1007A00024F0400414600C7A012C04D1146844F045
:1007B0002004146003E0146824F0200414604C7AD0
:1007C000012C04D1146844F01004146003E0146890
:1007D00024F0100414608C7A012C04D1146844F0C5
:1007E0000804146003E0146824F008041460CC7A50
:1007F000012C04D1146844F00404146003E014686C
:1008000024F0040414608C78A407CD7844EA0564CD
:100810000D7944EA05444D7944EA05540D886D1E6E
:100820002C43D461146824F001041460002300E018
:100830005B1C546804F001041CB14FF6FF74A34222
:10084000F6D1546804F001040CB1002000E001204E
:1008500030BD0246002019B9D36803F0030006E05A
:10086000012903D1136903F0030000E00020704761
:1008700010B500F5D87303EB01131B6803F00403F4
:100880001372137A53B900F5D87303EB01131B6885
:1008900040F2FF7404EA5353136009E000F5D87383
:1008A00003EB01131B686FF0604404EAD303536049
:1008B00000F5D87303EB01131B6803F002035372B6
:1008C00000F5D87303EB01135B6803F00F03937219
:1008D00000F5D87303EB01135B681B0AD37400F5B2
:1008E000D87303EB01139B68D37200F5D87303EB45
:1008F00001139B681C0A147300F5D87303EB0113F2
:100900009B681C0C547300F5D87303EB01139B68B0
:100910001B0E937300F5D87303EB0113DB68D373DD
:1009200000F5D87303EB0113DB681C0A147400F59F
:10093000D87303EB0113DB681C0C547400F5D873F7
:1009400003EB0113DB681B0E937421B9C36843F0FA
:100950002003C36003E0036943F02003036110BD7B
:1009600000218171C171017241728172C172817005
:10097000C170032101710221417101210180704781
:1009800010B502460020936803F08063B3F1806FD6
:1009900000D110E0936803F00063B3F1006F01D160
:1009A000012008E0936803F08053B3F1805F01D128
:1009B000022000E00420042874D002F5C07303EB89
:1009C00000131B6803F0010402F5C07303EB00136E
:1009D0001C600B7A7BB94B7A0C8843EA445302F5CE
:1009E000C07404EB00142468234302F5C07404EBC4
:1009F0000014236010E00B7A4C6843EAC4034C7A7D
:100A0000234302F5C07404EB00142468234302F569
:100A1000C07404EB001423608B7A03F00F038B7215
:100A200002F5C07303EB00135B6823F00F0402F5BB
:100A3000C07303EB00135C6002F5C07303EB00139B
:100A40005B688C7A234302F5C07404EB0014636086
:100A50008B7B1C064B7B44EA03440B7B44EA032359
:100A6000CC7A234302F5C07404EB0014A3608B7CA2
:100A70001C064B7C44EA03440B7C44EA0323CC7BF6
:100A8000234302F5C07404EB0014E36002F5C07365
:100A900003EB00131B6843F0010402F5C07303EB82
:100AA00000131C6010BD000070B5044600BFEFF3DA
:100AB0001080054672B621460348FFF761FF0646DF
:100AC00005B962B6304670BD006400402DE9F041C2
:100AD000804600272BE0184C00E0641E1748006891
:100AE00000F0E05008B9002CF7D104B91DE04046F1
:100AF000FFF7DAFF0546042D00D116E00E4C00BFCB
:100B000029460E48083800F01BF80646012E01D190
:100B1000BDE8F081641E022E01D1002CF0D12946DF
:100B200006480838FFF70EFD00BF781CC7B2032F38
:100B3000D1D30020ECE70000400D03000864004022
:100B400010B50246002321B1012907D002290FD197
:100B500009E090681D4C00EA04030BE090681C4C0F
:100B600000EA040306E090681A4C00EA040301E07E
:100B7000002300BF00BF184C181BA34216D007DC8F
:100B800083B16FF08060184470B1022818D111E071
:100B9000B0F5007F10D0114C204448B1B0F5003FB3
:100BA0000ED10BE002230DE000230BE0002309E04F
:100BB000002307E0012305E0012303E0012301E016
:100BC000002300BF00BFD8B210BD00000300000426
:100BD0000003000800000310000100080001FFF7F7
:100BE0001FB500F087FBA0B16A4602A903A800F078
:100BF00059FB40F20251039888420AD19DF8000047
:100C000000F00301034A1170C0F38101024A117020
:100C100000BF1FBD85000020860000201CB50020FD
:100C20000090019033208DF800000E480088000AE3
:100C30008DF801000B4800788DF802000A48008802
:100C400000F5806084B2200A8DF80400E0B28DF8CF
:100C500005006A46082140F2015000F095FB034967
:100C600008701CBD8000002082000020840000204D
:100C700010B50948007818B101200849087010BD66
:100C8000FFF7CCFF0648007808B9012000E00020FB
:100C90000249087000BFF2E75F00002061000020F9
:100CA0008400002001490880704700008000002077
:100CB0000149088070470000820000207047000052
:100CC0002DE9FF5F82460D4616460027B846B94615
:100CD000BB4600240020B4490870B4490870B449E8
:100CE0000880B4480068012807D0B248006802288C
:100CF00003D0B0480068032811D1AF48007860B134
:100D0000AE4801682846FFF781FA20F000404FF016
:100D10007C510390FFF778FB01D2012000E0002016
:100D20008046A4480068022803D0A248006803282F
:100D300011D1A148007860B1A14801683046FFF7A1
:100D400065FA20F000404FF07C510390FFF75CFB08
:100D500001D2012000E00020814696480068032867
:100D600011D19548007860B1964801685046FFF768
:100D70004DFA20F000404FF07C510390FFF744FB08
:100D800001D2012000E0002007460FB9012000E059
:100D900000208D490870B8F1000F01D1012000E05A
:100DA00000208A490870B9F1000F01D1012000E04C
:100DB0000020874908702FB9B8F1000F02D1B9F1AE
:100DC000000F7DD0FFF784FBB8F1000F1BD08149E5
:100DD0002846FFF721FA0390FFF7C9FA7E4A03C2BB
:100DE0007D4903C9FFF7AAFA01210390CDE900016B
:100DF000F0234FF47A7202910021012000F0F8F8FC
:100E00000A2001F0D5FAB9F1000F1AD07349304623
:100E1000FFF702FA0390FFF7AAFA714A03C270497A
:100E200003C9FFF78BFA01210390CDE90001E1230B
:100E3000FA2202910021022000F0DAF80A2001F0E3
:100E4000B7FADFB163495046FFF7E6F90390FFF7C1
:100E50008EFA644A03C2634903C9FFF76FFA01219E
:100E60000390CDE90001F0234FF47A720291002142
:100E7000032000F0BDF80A2001F09AFA5A480078E1
:100E800010B9002000F01BF957480478FFF740FB29
:100E9000B4B900214FF0804000F02BFF01218807FA
:100EA00000F0F8FE0121880700F0F7FE01204F490D
:100EB000087000203D4908703D49088000BF00E0EF
:100EC0000CE04148007828B14048007810B1404813
:100ED000007818B9354800780028F0D03A480078F2
:100EE00028B13148007840F001002F490870374898
:100EF000007828B12C48007840F002002A49087098
:100F00003348007828B12848007840F0040026498A
:100F100008702CB12448007840F040002249087045
:100F20002248007828B12048007840F080001E490F
:100F300008702548007858B12448007840B124480A
:100F4000007828B11948007810B90CB9012000E0E8
:100F500000208346BBF1000F0AD01A48C0F800A059
:100F6000164805601648066001201349087002E023
:100F700000201149087000201C49087000214FF022
:100F8000804000F08AFE0948007800B90CB100F0FA
:100F900033FC00200D4908700D4908700A4908709B
:100FA000584604B0BDE8F09F4A0000203C000020F5
:100FB0003E000020000000205800002050000020CB
:100FC000540000204C0000205C0000205D00002048
:100FD0005E0000200000A04310000020B76D2B42EF
:100FE0001800002008000020600000203B000020C6
:100FF0002DE9FF4706460F4615469846DDE90D9A4E
:101000000C9C002000900190029003908DF80060ED
:10101000FD208DF801008DF8027028128DF8030074
:10102000E8B28DF804008DF80580200E8DF80600DA
:10103000200C8DF80700200A8DF80800E0B28DF82A
:1010400009008DF80A908DF80BA06B208DF80C002C
:101050000D21684601F084F8BDE8FF871FB50446FE
:10106000002000900190029003908DF800400A202B
:101070008DF801006D208DF802006B208DF80300C3
:101080000421684601F06CF81FBD7FB505460C468B
:10109000002000900190029003908DF80050FE20F7
:1010A0008DF8010098208DF802008DF803406B2028
:1010B0008DF804000521684601F052F87FBD1FB588
:1010C0000446002000900190029003908DF80040AB
:1010D000FF208DF8010066208DF802006B208DF84E
:1010E00003000421684601F03BF81FBD2DE9F041E3
:1010F000024600250026002000230024002791F846
:1011000003C00CF00F0591F803C00CF0100CBCF1FB
:10111000000F03D091F802C04CEA050591F800C019
:10112000BCF1000F31D0146800202BE04FF0010C0F
:101130000CFA00F3B1F800C00CEA03069E4220D17D
:1011400083004FF00F0C0CFA03F7BC4305FA03FCC5
:101150004CEA040491F803C0BCF1280F06D14FF00B
:10116000010C0CFA00FCC2F814C00AE091F803C0AC
:10117000BCF1480F05D14FF0010C0CFA00FCC2F88D
:1011800010C0401C0828D1D31460B1F800C0BCF1D5
:10119000FF0F34DD546800202EE000F1080C4FF002
:1011A000010808FA0CF3B1F800C00CEA03069E42ED
:1011B00021D183004FF00F0C0CFA03F7BC4305FA62
:1011C00003FC4CEA040491F803C0BCF1280F05D1DC
:1011D00000F1080C08FA0CF8C2F8148091F803C06A
:1011E000BCF1480F07D100F1080C4FF0010808FAD4
:1011F0000CF8C2F81080401C0828CED35460BDE81B
:10120000F0810000F0B50A460023002400210025EB
:1012100000F00046B6F1004F02D11D4EF16901E029
:101220001B4E7168C0F3034583B200F44016B6F557
:10123000401F08D121F07061154E766826F0706667
:10124000134F7E6012E000F48016B6F5801F06D1C1
:10125000032606FA05F4A14341F0706106E0460D4D
:10126000360103FA06F6B14341F0706122B1460D32
:10127000360103FA06F6314300F00046B6F1004F9E
:1012800002D1034EF16101E0014E7160F0BD00003A
:1012900000000140416170470161704700BFFEE7F7
:1012A00000BFFEE770B586B004460D46164601AA9B
:1012B00001210F48FFF7DCFA9DF80C0010B90198E6
:1012C000206001E0029820609DF80D0068B99DF84B
:1012D0000E002870002005E00DF10F01095C31546B
:1012E000411CC8B229788142F6DC06B070BD00000E
:1012F0000064004010B501210448FFF7AAFA002855
:1013000001DD012010BD0020FCE70000006400406A
:101310002DE9F04186B005460E46904601950295AE
:1013200000208DF80C0004208DF80C0000208DF8B2
:101330000D008DF80E6000BF06E018F800200DF1DA
:101340000F010A54411CC8B2B042F6DB01A8FFF7F6
:10135000ABFB0446042C02D106B0BDE8F0810027A7
:1013600004E07F1C0648874200D905E02146054875
:10137000FFF7E6FB0128F4D100BF00BFECE7000057
:10138000A08601000064004070B586B005460C469A
:101390001646019500208DF80C008DF80D008DF893
:1013A0000E4000BF04E0325C0DF10F010A54401CF6
:1013B000A042F8DB0848006800F0E05010B90020B7
:1013C00006B070BD01A8FFF76FFB042801D1002013
:1013D000F6E70120F4E700000864004070470000D1
:1013E00070B5002100230F22C47804B3154C246883
:1013F00004F4E064C4F5E064210AC1F10403CA40C6
:10140000447804FA03F184781440214309010E4C16
:101410000678A155047804F01F050124AC40057836
:101420006D11AD0005F1E025C5F8004109E0047833
:1014300004F01F050124AC40044D0678761145F8F0
:10144000264070BD0CED00E000E400E080E100E02B
:1014500002490143024A1160704700000000FA058A
:101460000CED00E02DE9F04104462046FEF744FF74
:101470008046164801684046FEF7CEFE06461449EF
:10148000B1F90010601AFEF737FF80461148016875
:101490004046FEF7C1FE074639463046FEF764FE79
:1014A00005460B4804800C492846FEF7ADFF00D2E4
:1014B000094D0A492846FEF79DFF00D2074D2846F0
:1014C000FEF723FF00B2BDE8F081000074000020A9
:1014D0007C000020780000200000C8430000C8C342
:1014E00000B504480449086004480549086000F054
:1014F00009F800BD9A99993F74000020CDCC4C3F6B
:101500007800002000200149088070477C000020FE
:1015100070B504462078617840EA0120A17840EA5D
:101520000140E17840EA01650A2000F041FF2846C9
:10153000FEF7E2FE06460249FEF7A0FE70BD00007F
:101540000000C8422DE9F04104460D4616461F46EC
:10155000E1780906A27841EA0241627841EA022173
:10156000227841EA0200FEF7C7FE80461449FEF7E2
:1015700085FE2860E1790906A27941EA0241627993
:1015800041EA0221227941EA0200FEF7B5FE8046D7
:101590000B49FEF773FE3060E17A0906A27A41EA50
:1015A0000241627A41EA0221227A41EA0200FEF710
:1015B000A3FE80460249FEF761FE3860BDE8F08177
:1015C0000000C842704700002649097831B101295E
:1015D00015D002291FD003293CD12CE0FF280DD1C2
:1015E0000021214A117011460A780978491C1E4BC6
:1015F00019701E49885401211A4A117030E01A49A5
:101600000A780978491C184B197018498854022126
:10161000144A117024E014490A780978491C124BC5
:10162000197012498854194609780E2902DB0321E2
:101630000C4A117014E0FE2806D10C490A4A1278AF
:10164000885401210A4A11700021074A1170054A85
:10165000117005E00021044A1170024A117000BFA8
:1016600000BF7047700000206F000020DC000020E9
:101670006E00002029B1064AD2690243044BDA61A8
:1016800004E0034AD2698243014BDA6170470000EB
:101690000010024029B1064A92690243044B9A6144
:1016A00004E0034A92698243014B9A61704700004B
:1016B0000010024030B500210022002400232D4DEF
:1016C0006D6805F00C0121B1042905D0082923D14A
:1016D00005E0294D056022E0274D05601FE0254DFE
:1016E0006D6805F47012234D6D6805F48034022591
:1016F00005EB92421CB9214D554305600BE01D4D91
:101700006D6805F400351DB11C4D5543056002E0C0
:10171000194D5543056002E0174D056000BF00BF3D
:10172000144D6D6805F0F0010909154D6B5C0568F5
:10173000DD4045600F4D6D6805F4E061090A104D0C
:101740006B5C4568DD4085600A4D6D6805F460514D
:10175000C90A0B4D6B5C4568DD40C560054D6D6881
:1017600005F44041890B074D6B5CC568B5FBF3F58B
:10177000056130BD0010024000127A0000093D00F2
:101780009C000020AC00002010B50446012C08D1BC
:1017900000F014F84FF47A7000F00AFE062000F012
:1017A00053FC022C09D1022000F008F84FF47A70A3
:1017B00000F0FEFD062000F047FC10BD10B5044609
:1017C00080210B48FFF768FD21460A4800F04CFCD9
:1017D00000BF4021074800F069FB0028F9D01E2017
:1017E00000F0E6FD80210248FFF754FD10BD000027
:1017F000001401400044004010B5FEF769FE0021CE
:101800000846FFF742FC0A2000F0D2FDFEF780FEFA
:1018100010BD70473EB5FF208DF8000008208DF800
:10182000010013480088C0B28DF8020010480088FB
:10183000000A8DF803000F4800788DF804000E4868
:1018400000788DF805000D4800788DF8060000201E
:101850008DF80700FE208DF80800002404E01DF834
:10186000040000F0F1FB641C092CF8DB3EBD000015
:101870003600002085000020860000208400002023
:1018800010B500F001F810BD0CB5002001900090DB
:101890003348006840F480303149086000BF304868
:1018A000006800F4003000900198401C01900098FE
:1018B00018B90198B0F5A06FF1D12948006800F47B
:1018C000003010B10120009001E00020009000984D
:1018D000012843D12348006840F0100021490860E6
:1018E0000846006820F0030008600846006840F0E1
:1018F000020008601A484068194948600846406874
:1019000048600846406840F4806048600846406887
:1019100020F47C1048600846406840F4E8104860B5
:101920000846006840F08070086000BF0C480068FE
:1019300000F000700028F9D00948406820F003004A
:10194000074948600846406840F00200486000BF10
:101950000348406800F00C000828F9D10CBD0000D5
:10196000001002400020024013B584B0044601215B
:10197000204600F037FF002002900390207840F0CE
:1019800090500A49486047F205000190BDF80400F4
:10199000ADF808009DF814008DF80C000A46917A05
:1019A000506802AAFFF7B4FC06B010BD2001002069
:1019B00037B582B00446154600200090019020788B
:1019C00040F090500849486008208872BDF80C002B
:1019D000ADF8000001950A46917A50686A46FFF713
:1019E00097FC05B030BD00002001002070470000CA
:1019F00010B51348006840F001001149086008461E
:101A00004068104908400E494860084600680E4981
:101A100008400B4908600846006820F480200860F0
:101A20000846406820F4FE0048604FF41F008860BC
:101A3000FFF726FF4FF000600449086010BD00006A
:101A4000001002400000FFF8FFFFF6FE08ED00E086
:101A500010B50121880700F02CF9C8B101218807D1
:101A600000F018F90B480078012811D10A480088C5
:101A7000401C0949088008460088B0F5FA6F07DB6A
:101A800001200649087000200249087002490880B8
:101A900010BD00003B0000203E0000203C00002064
:101AA0001FB501210846FFF7E5FD4FF0804000F02B
:101AB0001AF940F2E730ADF8080040F2CF20ADF857
:101AC00004000020ADF80A00ADF8060001A94FF0AF
:101AD000804000F011F901221146900700F0FAF859
:101AE0001C208DF8000002208DF8010000208DF8E8
:101AF000020001208DF803006846FFF771FC1FBD4E
:101B000010B501213F4800F0D4F8002878D0012119
:101B10003C4800F0BFF83C48007800284BD03B48D8
:101B2000008814281ADA39480088401C3749088090
:101B30003748B0F90000FFF795FC364908800846A1
:101B4000B0F90000FFF7B4F84FF4FA70FFF7AAF805
:101B500031480088401C304908800BE0FFF7D2FC78
:101B600000202B4908802B490880FFF7A1F80020AE
:101B7000FFF798F8FFF77CF80120284908702648FD
:101B80000088FA283CDB00201F49087022490880A1
:101B90001E490880FFF78CF80020FFF783F8FFF755
:101BA00067F801201E49087000201E4908800720A0
:101BB00000F04AFA24E01A48007870B11948008809
:101BC0001E2805DA17480088401C1649088004E0E2
:101BD000002013490870134908800020FFF768F8B7
:101BE0000020FFF75FF810480078401C0E4908708D
:101BF00008460078052803DB00200870FFF738F856
:101C000010BD0000000800404000002048000020F7
:101C10003600002038000020420000203A0000205A
:101C200044000020460000207E0000201FB5012156
:101C30000420FFF71FFD164800F055F840F2E7308A
:101C4000ADF8080040F2CF20ADF804000020ADF858
:101C50000A00ADF8060001A90D4800F04DF8012278
:101C600011460B4800F036F81E208DF800000120C8
:101C70008DF8010000208DF8020001208DF803008E
:101C80006846FFF7ADFB0121014800F006F81FBDD3
:101C900000080040CA430282704721B1028842F026
:101CA0000102028004E002884FF6FE731A400280AF
:101CB000704730B50246002000230024158A05EA4B
:101CC0000103958905EA010413B10CB1012000E07C
:101CD000002030BD1AB183890B43838102E08389E0
:101CE0008B438381704701894FF6F872114001815F
:101CF0007047818470470000002202881D4B984283
:101D00000ED01D4B98420BD0B0F1804F08D01B4B2A
:101D1000984205D01A4B984202D01A4B984204D1EF
:101D20004FF68F731A404B881A43174B984207D0CF
:101D3000164B984204D04FF6FF431A40CB881A4303
:101D400002808B8883850B8803850A4B98420BD0D1
:101D5000094B984208D00E4B984205D00D4B984243
:101D600002D00D4B984201D10B7A03860123838266
:101D700070470000002C0140003401400004004086
:101D800000080040000C004000100040001400401B
:101D900000400140004401400048014010B540F2BD
:101DA0002551064800F08FF838B1044800F046F994
:101DB000C4B22046FFF708FC00BF10BD0038014048
:101DC00000B585B001210420FFF764FC01218803E0
:101DD000FFF760FC4FF40070ADF8100018208DF88C
:101DE000130003208DF8120004A91C48FFF77EF9A8
:101DF0004FF48060ADF8100048208DF8130004A95E
:101E00001648FFF773F94FF4E13000900020ADF869
:101E10000400ADF80600ADF80800ADF80C000C2089
:101E2000ADF80A0069460E4800F09CF8012240F225
:101E300025510B4800F071F80121094800F02AF8FB
:101E4000252000F01F02012191404209920002F179
:101E5000E022C2F8001100BF05B000BD000801403B
:101E60000038014010B540F22551084800F02BF829
:101E700058B1064800F0E2F8C4B2012C01D0022C9F
:101E800002D101200249087000BF10BD004400408B
:101E90003400002021B1828942F40052828104E0A2
:101EA00082894DF6FF731A408281704702460020F6
:101EB000B1F5007F00D100BF13880B400BB10120AA
:101EC00000E00020704770B5024600240023002582
:101ED000002040F66A16B14200D100BFC1F342159E
:101EE00001F01F03012606FA03F3012D02D19689A2
:101EF000334006E0022D02D1168A334001E0968A73
:101F000033400C12012606FA04F41688344013B14B
:101F10000CB1012000E0002070BDF0B503460024A4
:101F200000260025002040F66A17B94200D100BF04
:101F30001846C1F3421401F01F06012707FA06F5FF
:101F4000012C01D10C3004E0022C01D1103000E052
:101F500014301AB107682F43076002E00768AF43E7
:101F60000760F0BD2DE9F04786B005460E46002417
:101F7000A24600BFA1460027B08900B100BF2F468E
:101F80002C8A4CF6FF700440F08804432C82AC8904
:101F90004EF6F3100440B088318908437189084334
:101FA0000443AC81AC8A4FF6FF400440B08904433F
:101FB000AC8201A8FFF77EFB1F48874202D1DDF803
:101FC00010A001E0DDF80CA0A88900F4004040B1A9
:101FD0000AEBCA0000EB0A1031684900B0FBF1F8C7
:101FE00007E00AEBCA0000EB0A1031688900B0FB79
:101FF000F1F86420B8FBF0F004012009642101FB32
:102000001089A88900F4004040B1322000EBC900DB
:10201000B0FBF1F000F00700044308E0322000EBD1
:1020200009106421B0FBF1F000F00F0004432C8193
:1020300006B0BDE8F08700000038014001468888FE
:10204000C0F308007047000010B50446214605485B
:1020500000F00AF800BF80210248FFF727FF0028A0
:10206000F9D010BD00380140C1F3080282807047EA
:1020700010B536E0254A00212548FEF7F9FB01207E
:10208000224981F828000846007A042800D028E078
:102090001E484068C0F307241C48807A03281FD1DB
:1020A0001A48C07AFD281BD11848007B9F2817D1F9
:1020B0001648407B6B2813D1012C07D0022C09D085
:1020C000032C0BD101201349087008E001201249AC
:1020D000087004E001201149087000E000BF00BF53
:1020E00000BF00210A48FEF7B4FB0028C2DC0C49FF
:1020F0000748FEF7DFFA40B10A480068401C09496A
:10210000086007490248FEF735FA10BDB00000200C
:10211000006400405C0000205D0000205E000020A4
:10212000100000326400002000BFFEE702E008C893
:10213000121F08C1002AFAD170477047002001E041
:1021400001C1121F002AFBD1704710B500F0C6FA7A
:1021500000F01EF900F08CF800F05AFB10BD0000F2
:1021600030B585B004460D460020049003900290DF
:1021700001900090A81EC0B203906CE09DF80C0086
:102180009DF81010401AC0B20290002036494861F4
:1021900020789DF8001041EA002133488161617880
:1021A000C17704210177002141779DF808000828B4
:1021B00023DA0020019013E09DF81000801C225CBF
:1021C00029481F309DF80410491C42549DF8040012
:1021D000401CC0B201909DF81000401CC0B2049099
:1021E0009DF804009DF808108842E5DB9DF8080082
:1021F000401CC1B21C4881771DE00020019013E013
:102200009DF81000801C225C17481F309DF80410B8
:10221000491C42549DF80400401CC0B201909DF836
:102220001000401CC0B204909DF804000728E7DBB2
:1022300008210D4881770C481430FEF747FC28B977
:1022400001200A490870002005B030BD9DF800004B
:10225000401CC0B200909DF810009DF80C10884200
:102260008CDB0120F0E70000B000002060000020BF
:10227000F0B589B04FF48050ADF8200003208DF800
:10228000220018208DF8230008A93B48FEF72EFFF6
:102290004FF40060ADF8200048208DF8230008A915
:1022A0003548FEF723FF05A8FEF75AFB00208DF8FE
:1022B00016008DF8170008208DF8180001208DF801
:1022C00019000620ADF8140005A92C48FEF737FACE
:1022D00000208DF80E008DF80F0001208DF8100001
:1022E000274C284D200CADF80400A0B2ADF8060034
:1022F000280CADF80800A8B2ADF80A000120ADF82E
:102300000C008DF8110001A8FEF750F91EA000681E
:102310000090002626E0701CC0B28DF80E00002050
:102320008DF80F0001208DF810001DF8060007023F
:10233000042000EBC704154D200CADF80400A0B23A
:10234000ADF80600280CADF80800A8B2ADF80A00F8
:102350000020ADF80C0001208DF8110001A8FEF757
:1023600025F9761C042ED6DB012202210348FEF754
:10237000DDF909B0F0BD0000000801400064004034
:10238000000040A00400E0FF0102030404F807007D
:1023900010B501210920FFF77DF901214806FFF75B
:1023A00069F901210148FEF72DFF10BD0002300040
:1023B00008B5002100916FF07F414FF0E02251619C
:1023C000002191610521116114E000214FF0E0220C
:1023D00091610E4909684FF47A72B1FBF2F1C1F1D3
:1023E0008071009100BF4FF0E0218969009A91420D
:1023F000F9D8401E0028E8DC4FF0E021096921F0FF
:1024000001014FF0E022116108BD000088000020AA
:102410002DE9FC5F07460D4614461E462946204618
:10242000FDF7F4FE0190A84621463846FDF7ECFF83
:1024300001D2274605E029463846FDF7DBFF00D2EA
:102440002F460121B140481EFDF756FF8346414605
:102450003846FDF7DBFE59460090FDF7DDFE82466B
:102460000199FDF70BFF8146FDF74FFFBDE8FC9F8B
:1024700070B504460E46154600200B4908604860BA
:102480000420087200204872082088722670257780
:1024900029462046FFF768FA207800F091F9204697
:1024A00000F078F970BD0000200100204FF4FA60C0
:1024B000FFF77EFFFFF784FCFFF747FEFFF710F8FA
:1024C000FFF7B4FB6420FFF773FFFFF7E9FA64201E
:1024D000FFF76EFF0320FEF7C1FD0120FEF7BEFDF2
:1024E0000220FEF7BBFD6420FFF762FF01227F217F
:1024F0006348FFF7BDFF1E20FFF75AFF0022614926
:102500005F4800F01DF96420FFF752FF0120FFF73C
:1025100055F9B4E05C480078002875D000205A498D
:1025200008704FF0814559484078042806D00528A6
:102530002CD006286AD0072827D171E00020544902
:102540000870544908800520FFF732FF524B534A68
:1025500053494E48801CFEF7F5FF4F4802684F482C
:1025600001684F480068FEF7ABFB06460A20FFF7FC
:102570001FFF1EB10420FFF767FD06E0E420FFF710
:1025800063FD48480078FFF75FFD6CE0002040499C
:102590000870404908803D48801CFEF7B9FF04469A
:1025A00041492046FDF738FE06464049FDF766FEE4
:1025B00004462046FDF7DBFE064600223C4BFDF7B5
:1025C00001FF08D32046FDF7D2FE06460022394B14
:1025D000FDF7E0FE02D2EE20FFF736FD364804603C
:1025E0001023364A36490068FFF712FF3549088044
:1025F00022462946224800F0A3F80520FFF7D8FE1E
:102600000520FFF721FD2EE02FE0FFE70020204905
:102610000870204908801D498878FFF7B5F822E046
:102620001A4880781949C97840EA012000B2264941
:1026300008800020254908802548007810B1002036
:10264000244908801248007860B92148007848B9C8
:10265000FEF758FF01200E49087000200D49088040
:102660001C49088000BF00BF00BF1B48007820B194
:10267000002019490870FFF7CDF8FEF7B1FA49E7D5
:10268000EC0000200000A0406E000020DC000020D4
:1026900040000020420000202800002024000020EC
:1026A000200000204A000020DA0F49400000344397
:1026B00000002940000029C02C000020DB0F494108
:1026C000DB0F49C132000020360000204800002006
:1026D00044000020460000203A00002008B54FF4D6
:1026E0004070FEF7B5FE14208DF8000000208DF834
:1026F00001008DF8020001208DF803006846FEF706
:102700006FFE25208DF8000001208DF801000020CB
:102710008DF8020001208DF803006846FEF760FE88
:1027200026208DF8000002208DF8010000208DF891
:10273000020001208DF803006846FEF751FE08BD37
:102740002DE9F04104460D461746207F01280FD0A1
:102750000126267731462046FFF706F90A20FFF7C3
:1027600027FE207800F02CF80A20FFF721FE00BF9A
:102770002A4647F217012046FFF71AF93A4647F270
:1027800016012046FFF714F9207800F019F8BDE88B
:10279000F08100001CB5044600200090019001204B
:1027A0008DF80000207840F0C060044948600A4677
:1027B000917A50686A46FEF7ABFD1CBD20010020EF
:1027C0001CB5044600200090019044F0407004497C
:1027D00048600A46917A50686A46FEF799FD1CBD2A
:1027E000200100207CB504460D4600200090019099
:1027F0008DF80050207840F08060044948600A4617
:10280000917A50686A46FEF783FD7CBD2001002066
:1028100000B585B001214804FEF72CFF01212520D9
:10282000FEF738FF0420ADF8100018208DF81300D3
:1028300003208DF8120004A92448FEF757FC082055
:10284000ADF8100004208DF8130004A91F48FEF70E
:102850004DFC8020ADF8100010208DF813000320EF
:102860008DF8120004A91A48FEF740FC8021184890
:10287000FEF710FD4FF4165000900020ADF8040054
:10288000ADF80600ADF80800ADF80C000C20ADF86E
:102890000A0069460F48FFF765FB012240F2255107
:1028A0000C48FFF73AFB01210A48FFF7F3FA26200C
:1028B00000F01F02012191404209920002F1E02242
:1028C000C2F8001100BF05B000BD000000080140C3
:1028D0000014014000440040F828000800000020D7
:1028E000B00000002C210008A8290008B00000203A
:1028F000880800003C2100080300000000000000E0
:1029000000000000000000000000000000000000C7
:1029100000000000000000000000000000000000B7
:1029200000000000000000000000000000000000A7
:102930000000000000000000000000000000000097
:102940000000000000000000000000000000000087
:102950000000000000000000000000000000000077
:102960000000000000000000000000000000000067
:102970000000000000000000000000000204000051
:1029800000A24A040000000000000000010203044D
:102990000607080900000000010203040102030405
:0829A0000607080902040608FD
:0400000508000131BD
:00000001FF
