:1004A900C100C10102140320021603200210000139
:10000E00E4F51F7FE87E031204C9051FE51FC394A4
:03001E006440F04B
:0100210022BC
:10014600120485D2AF120429C2A7C2A612023C8F9E
:1001560012E51264016005E513B401127514037506
:100166001520D20012000EC200C2A7E4F513E51254
:1001760064026005E513B402127514037515E8D21E
:100186000012000EC200C2A7E4F513E51264036074
:1001960005E513B40312751603751720D201120074
:1001A6000EC201C2A6E4F513E51264046006E51367
:1001B600640470987516057517AAD20112000EC24E
:0801C60001C2A6E4F5138084D8
:10049800C374FF9FFF74FF9EC28C8F8AF58CD28C29
:0104A8002231
:03000B000201CE21
:0701CE00C0E0C0D075D008AD
:1001D500E5107056E51124FE60191460251460348D
:1001E50024037046300004D2A78002C2A7AF15AE23
:1001F50014801CC2A7C374C49515FF74099514FE19
:10020500800D300104D2A68002C2A6AF17AE161229
:1002150004988016C2A6C374C49517FF7409951671
:10022500FE1204987510007511000511E511700294
:020235000510B2
:05023700D0D0D0E03240
:0300230002029D39
:10029D00C0E0C0F0C083C082C0D075D000C000C027
:1002AD0001C002C003C004C005C006C007C29885C6
:1002BD0099137F647E001204C9D2908513993099E9
:1002CD00FDC299C290D007D006D005D004D003D07E
:1002DD0002D001D000D0D0D082D083D0F0D0E03287
:100485005389F0438901758A89758C13C28DD28C85
:03049500D2A922C7
:1004290043878075985053890F438920758BFA75D6
:0B0439008DFAC2ABD28ED2AFD2AC2243
:10023C00E4F51F20A2137F14FE1204C930A2FD7F27
:10024C00147E001204C9751F0120A3147F147E00B4
:10025C001204C930A3FD7F147E001204C9751F025D
:10026C0020A4147F147E001204C930A4FD7F147ED8
:10027C00001204C9751F0320A5147F147E001204FC
:10028C00C930A5FD7F147E001204C9751F04AF1F71
:01029C00223F
:0B04C900EF1FAC0670011E4C70F62205
:0604BA00C2A58F80D2A74D
:0804C0007F027EEFDEFEDFFC8F
:0104C8002211
:0A04D400C2A61204BAC2A70204C0B7
:1003EE00CFCDCFCECCCE1200657C007D0A1200653B
:0403FE00ED2430FFBB
:0A040200D2A61204BAC2A70204C079
:10045B00AE07BE0104ED148006BE0209ED243F4435
:06046B0080FF1204D42200
:100471007F381204D47F0C1204D47F061204D47F77
:04048100010204D49C
:0A04DE00AC0312045BAF0402040239
:0603CB008B368A378938E9
:1003D10012045BE4FDAB36AA37A9388D8275830020
:0C03E100120026FF60061204020D80E9E5
:0103ED0022ED
:0C0398007F0AEA24FFFDE434FFFC7E0035
:0803A4008E328F338C348D354D
:1003AC007F017E00E4FBEBC39535E5346480F87483
:0E03BC008098500AAC32AD331200530B80E82B
:0103CA002210
:04040C008A1C8B1D9E
:1004100012045BAA1EEAD39400400D120398AC1C90
:08042000AD1D1203EE1A80ED80
:0104280022B1
:1002ED0012045BC3EA64809480400B7F2B120402DE
:1002FD008A268B27800E7F2D120402C3E49BF527DF
:10030D00E49AF526AA25EAD39400400D120398AC81
:09031D0026AD271203EE1A80ED53
:0103260022B4
:040327008A2A8B2B68
:10032B0012045BAA2CEAD3940040297F1012039A83
:10033B00AC2AAD2BCFCDCFCECCCE120065EF540F68
:10034B00FEC3940AEE5004243080022437FF1204BB
:04035B00021A80D131
:01035F00227B
:040360008A2F8B3025
:1003640012045BAA31EAD394004028EA24FFFDE496
:1003740034FFFC7F027E001203A4AC2FAD30CFCD3E
:10038400CFCECCCE120065EF54012430FF1204020C
:030394001A80D2FA
:010397002243
:1004440053890F438910758B66758DFCC28FD28ECC
:07045400D2ABD2AFD2BB22F4
:030000000200BA41
:0C00BA00787FE4F6D8FD75813802010162
:10002600BB010CE58229F582E5833AF583E022508F
:1000360006E92582F8E622BBFE06E92582F8E222D9
:0D004600E58229F582E5833AF583E49322F3
:10005300EF8DF0A4A8F0CF8CF0A428CE8DF0A42EC1
:02006300FE227B
:10006500BC000BBE0029EF8DF084FFADF022E4CC7F
:10007500F875F008EF2FFFEE33FEEC33FCEE9DEC48
:10008500984005FCEE9DFE0FD5F0E9E4CEFD22ED8E
:10009500F8F5F0EE8420D21CFEADF075F008EF2FD8
:1000A500FFED33FD4007985006D5F0F222C398FDC9
:0500B5000FD5F0EA2266
:1000C600020146E493A3F8E493A34003F68001F209
:1000D60008DFF48029E493A3F85407240CC8C3333B
:1000E600C4540F4420C8834004F456800146F6DF0A
:1000F600E4800B01020408102040809004A9E47EED
:10010600019360BCA3FF543F30E509541FFEE493FE
:10011600A360010ECF54C025E060A840B8E493A3C5
:10012600FAE493A3F8E493A3C8C582C8CAC583CAF0
:10013600F0A3C8C582C8CAC583CADFE9DEE780BEA8
:0104B9000042
:00000001FF
